{
  "address": "0xf2cfe5e11D5DF48296a85Ba9e0932F8E44AD758e",
  "abi": [
    {
      "inputs": [
        {
          "internalType": "uint256",
          "name": "blocksToAct",
          "type": "uint256"
        },
        {
          "internalType": "address",
          "name": "feeTokenAddress",
          "type": "address"
        },
        {
          "internalType": "uint256",
          "name": "rollFee",
          "type": "uint256"
        },
        {
          "internalType": "uint256",
          "name": "rerollFee",
          "type": "uint256"
        }
      ],
      "stateMutability": "nonpayable",
      "type": "constructor"
    },
    {
      "inputs": [
        {
          "internalType": "address",
          "name": "target",
          "type": "address"
        }
      ],
      "name": "AddressEmptyCode",
      "type": "error"
    },
    {
      "inputs": [
        {
          "internalType": "address",
          "name": "account",
          "type": "address"
        }
      ],
      "name": "AddressInsufficientBalance",
      "type": "error"
    },
    {
      "inputs": [],
      "name": "FailedInnerCall",
      "type": "error"
    },
    {
      "inputs": [
        {
          "internalType": "address",
          "name": "tokenAddress",
          "type": "address"
        },
        {
          "internalType": "uint256",
          "name": "tokenID",
          "type": "uint256"
        }
      ],
      "name": "NFTDeadlineExceeded",
      "type": "error"
    },
    {
      "inputs": [
        {
          "internalType": "address",
          "name": "player",
          "type": "address"
        },
        {
          "internalType": "address",
          "name": "tokenAddress",
          "type": "address"
        },
        {
          "internalType": "uint256",
          "name": "tokenID",
          "type": "uint256"
        }
      ],
      "name": "NFTNotOwnedByPlayer",
      "type": "error"
    },
    {
      "inputs": [
        {
          "internalType": "address",
          "name": "player",
          "type": "address"
        }
      ],
      "name": "PlayerDeadlineExceeded",
      "type": "error"
    },
    {
      "inputs": [
        {
          "internalType": "address",
          "name": "token",
          "type": "address"
        }
      ],
      "name": "SafeERC20FailedOperation",
      "type": "error"
    },
    {
      "inputs": [
        {
          "internalType": "address",
          "name": "tokenAddress",
          "type": "address"
        },
        {
          "internalType": "uint256",
          "name": "tokenID",
          "type": "uint256"
        }
      ],
      "name": "WaitForNFTTick",
      "type": "error"
    },
    {
      "inputs": [
        {
          "internalType": "address",
          "name": "player",
          "type": "address"
        }
      ],
      "name": "WaitForPlayerTick",
      "type": "error"
    },
    {
      "anonymous": false,
      "inputs": [
        {
          "indexed": true,
          "internalType": "address",
          "name": "tokenAddress",
          "type": "address"
        },
        {
          "indexed": true,
          "internalType": "uint256",
          "name": "tokenID",
          "type": "uint256"
        },
        {
          "indexed": false,
          "internalType": "uint256",
          "name": "entropy",
          "type": "uint256"
        }
      ],
      "name": "NFTEntropyUsed",
      "type": "event"
    },
    {
      "anonymous": false,
      "inputs": [
        {
          "indexed": true,
          "internalType": "address",
          "name": "tokenAddress",
          "type": "address"
        },
        {
          "indexed": true,
          "internalType": "uint256",
          "name": "tokenID",
          "type": "uint256"
        }
      ],
      "name": "NFTRoll",
      "type": "event"
    },
    {
      "anonymous": false,
      "inputs": [
        {
          "indexed": true,
          "internalType": "address",
          "name": "player",
          "type": "address"
        },
        {
          "indexed": false,
          "internalType": "uint256",
          "name": "entropy",
          "type": "uint256"
        }
      ],
      "name": "PlayerEntropyUsed",
      "type": "event"
    },
    {
      "anonymous": false,
      "inputs": [
        {
          "indexed": true,
          "internalType": "address",
          "name": "player",
          "type": "address"
        }
      ],
      "name": "PlayerRoll",
      "type": "event"
    },
    {
      "inputs": [],
      "name": "BlocksToAct",
      "outputs": [
        {
          "internalType": "uint256",
          "name": "",
          "type": "uint256"
        }
      ],
      "stateMutability": "view",
      "type": "function"
    },
    {
      "inputs": [],
      "name": "FeeToken",
      "outputs": [
        {
          "internalType": "contract IERC20",
          "name": "",
          "type": "address"
        }
      ],
      "stateMutability": "view",
      "type": "function"
    },
    {
      "inputs": [
        {
          "internalType": "address",
          "name": "",
          "type": "address"
        },
        {
          "internalType": "uint256",
          "name": "",
          "type": "uint256"
        }
      ],
      "name": "LastRollForNFT",
      "outputs": [
        {
          "internalType": "uint256",
          "name": "",
          "type": "uint256"
        }
      ],
      "stateMutability": "view",
      "type": "function"
    },
    {
      "inputs": [
        {
          "internalType": "address",
          "name": "",
          "type": "address"
        }
      ],
      "name": "LastRollForPlayer",
      "outputs": [
        {
          "internalType": "uint256",
          "name": "",
          "type": "uint256"
        }
      ],
      "stateMutability": "view",
      "type": "function"
    },
    {
      "inputs": [],
      "name": "RerollFee",
      "outputs": [
        {
          "internalType": "uint256",
          "name": "",
          "type": "uint256"
        }
      ],
      "stateMutability": "view",
      "type": "function"
    },
    {
      "inputs": [],
      "name": "RollFee",
      "outputs": [
        {
          "internalType": "uint256",
          "name": "",
          "type": "uint256"
        }
      ],
      "stateMutability": "view",
      "type": "function"
    },
    {
      "inputs": [
        {
          "internalType": "address",
          "name": "tokenAddress",
          "type": "address"
        },
        {
          "internalType": "uint256",
          "name": "tokenID",
          "type": "uint256"
        }
      ],
      "name": "rerollForNFT",
      "outputs": [
        {
          "internalType": "uint256",
          "name": "",
          "type": "uint256"
        }
      ],
      "stateMutability": "nonpayable",
      "type": "function"
    },
    {
      "inputs": [],
      "name": "rerollForPlayer",
      "outputs": [
        {
          "internalType": "uint256",
          "name": "",
          "type": "uint256"
        }
      ],
      "stateMutability": "nonpayable",
      "type": "function"
    },
    {
      "inputs": [
        {
          "internalType": "address",
          "name": "tokenAddress",
          "type": "address"
        },
        {
          "internalType": "uint256",
          "name": "tokenID",
          "type": "uint256"
        }
      ],
      "name": "rollForNFT",
      "outputs": [
        {
          "internalType": "uint256",
          "name": "",
          "type": "uint256"
        }
      ],
      "stateMutability": "nonpayable",
      "type": "function"
    },
    {
      "inputs": [],
      "name": "rollForPlayer",
      "outputs": [
        {
          "internalType": "uint256",
          "name": "",
          "type": "uint256"
        }
      ],
      "stateMutability": "nonpayable",
      "type": "function"
    }
  ],
  "transactionHash": "0xe6de22ea11c463d3091d4527dfa769016dbecf8698b509d00c5561b288f3a109",
  "args": [
    "30",
    "0xfB9b4E40d12cD6a9f22688B6A54E4e8D7E6fF105",
    "10",
    "3"
  ],
  "numDeployments": 1,
  "solcInputHash": "93393282e2059dbe21b2d2abb8b282bb",
  "bytecode": "0x608060405234801561001057600080fd5b5060405161080f38038061080f83398101604081905261002f91610061565b600093909355600180546001600160a01b0319166001600160a01b0393909316929092179091556002556003556100ac565b6000806000806080858703121561007757600080fd5b845160208601519094506001600160a01b038116811461009657600080fd5b6040860151606090960151949790965092505050565b610754806100bb6000396000f3fe608060405234801561001057600080fd5b506004361061009e5760003560e01c8063884eaaea11610066578063884eaaea14610125578063be59cce314610138578063d038f2c614610141578063d583985a1461014a578063dabd51021461016a57600080fd5b80632c4d1a49146100a35780632d3762c0146100be578063481531e9146100c65780635c6195e8146100f157806386192d011461011c575b600080fd5b6100ab61017d565b6040519081526020015b60405180910390f35b6100ab6101e4565b6001546100d9906001600160a01b031681565b6040516001600160a01b0390911681526020016100b5565b6100ab6100ff366004610646565b600560209081526000928352604080842090915290825290205481565b6100ab60025481565b6100ab610133366004610646565b610204565b6100ab60005481565b6100ab60035481565b6100ab610158366004610672565b60046020526000908152604090205481565b6100ab610178366004610646565b610291565b6000610188336102bd565b6003546001546101a7916001600160a01b039091169033903090610319565b33600081815260046020526040808220439055517f7b5c464bc5b5d9f749f7a2af770c5a8ef3cc7edd8b9efa875112bbd69255fd8e9190a2504390565b6002546001546000916101a7916001600160a01b03169033903090610319565b6000610211338484610379565b61021b838361042a565b60035460015461023a916001600160a01b039091169033903090610319565b6001600160a01b0383166000818152600560209081526040808320868452909152808220439055518492917f1b1920a7f91d6b0fd205bb210302351b28e6e8a9178571676f7da29e84500aeb91a350435b92915050565b600061029e338484610379565b60025460015461023a916001600160a01b039091169033903090610319565b6001600160a01b0381166000908152600460205260408120546102e0904361068f565b90506000548111156103155760405163afa07b8160e01b81526001600160a01b03831660048201526024015b60405180910390fd5b5050565b604080516001600160a01b0385811660248301528416604482015260648082018490528251808303909101815260849091019091526020810180516001600160e01b03166323b872dd60e01b179052610373908590610494565b50505050565b6040516331a9108f60e11b81526004810182905282906001600160a01b038581169190831690636352211e90602401602060405180830381865afa1580156103c5573d6000803e3d6000fd5b505050506040513d601f19601f820116820180604052508101906103e991906106b0565b6001600160a01b03161461037357604051637465ded960e11b81526001600160a01b038086166004830152841660248201526044810183905260640161030c565b6001600160a01b0382166000908152600560209081526040808320848452909152812054610458904361068f565b905060005481111561048f57604051630a6957c560e31b81526001600160a01b03841660048201526024810183905260440161030c565b505050565b60006104a96001600160a01b038416836104f7565b905080516000141580156104ce5750808060200190518101906104cc91906106cd565b155b1561048f57604051635274afe760e01b81526001600160a01b038416600482015260240161030c565b60606105058383600061050c565b9392505050565b6060814710156105315760405163cd78605960e01b815230600482015260240161030c565b600080856001600160a01b0316848660405161054d91906106ef565b60006040518083038185875af1925050503d806000811461058a576040519150601f19603f3d011682016040523d82523d6000602084013e61058f565b606091505b509150915061059f8683836105a9565b9695505050505050565b6060826105be576105b982610605565b610505565b81511580156105d557506001600160a01b0384163b155b156105fe57604051639996b31560e01b81526001600160a01b038516600482015260240161030c565b5080610505565b8051156106155780518082602001fd5b604051630a12f52160e11b815260040160405180910390fd5b50565b6001600160a01b038116811461062e57600080fd5b6000806040838503121561065957600080fd5b823561066481610631565b946020939093013593505050565b60006020828403121561068457600080fd5b813561050581610631565b8181038181111561028b57634e487b7160e01b600052601160045260246000fd5b6000602082840312156106c257600080fd5b815161050581610631565b6000602082840312156106df57600080fd5b8151801515811461050557600080fd5b6000825160005b8181101561071057602081860181015185830152016106f6565b50600092019182525091905056fea264697066735822122086ad612e0e506ee627d0e32a4b0b9b73b6f5363e17e8ecc78090de18eea340a164736f6c63430008140033",
  "devdoc": {
    "author": "Moonstream Engineering (engineering@moonstream.to) A Bandit implements a fully on-chain single-player fog-of-war mechanic that produces RNG via two player-submitted transactions. First, a player submits a transaction expressing their intent to generate RNG. Second, the player submits a transaction that uses RNG derived from the block hash of their first transaction. The player has a limited number of blocks to submit the second transaction. If they fail to submit it in time, the entropy is wasted. The player may also elect to re-roll RNG by submitting a new transaction before the block deadline in which they pay a fee to re-roll. If they elect to do this, the block hash of the block in which the transaction representing their intent to re-roll is used as the new source of entropy. The block deadline is then calculated from this transaction block.",
    "errors": {
      "AddressEmptyCode(address)": [
        {
          "details": "There's no code at `target` (it is not a contract)."
        }
      ],
      "AddressInsufficientBalance(address)": [
        {
          "details": "The ETH balance of the account is not enough to perform the operation."
        }
      ],
      "FailedInnerCall()": [
        {
          "details": "A call to an address target failed. The target may have reverted."
        }
      ],
      "SafeERC20FailedOperation(address)": [
        {
          "details": "An operation with an ERC20 token failed."
        }
      ]
    },
    "kind": "dev",
    "methods": {},
    "title": "Degen Trail bandit contract",
    "version": 1
  },
  "userdoc": {
    "kind": "user",
    "methods": {},
    "version": 1
  },
  "storageLayout": {
    "storage": [
      {
        "astId": 5796,
        "contract": "contracts/Bandit.sol:Bandit",
        "label": "BlocksToAct",
        "offset": 0,
        "slot": "0",
        "type": "t_uint256"
      },
      {
        "astId": 5799,
        "contract": "contracts/Bandit.sol:Bandit",
        "label": "FeeToken",
        "offset": 0,
        "slot": "1",
        "type": "t_contract(IERC20)1276"
      },
      {
        "astId": 5801,
        "contract": "contracts/Bandit.sol:Bandit",
        "label": "RollFee",
        "offset": 0,
        "slot": "2",
        "type": "t_uint256"
      },
      {
        "astId": 5803,
        "contract": "contracts/Bandit.sol:Bandit",
        "label": "RerollFee",
        "offset": 0,
        "slot": "3",
        "type": "t_uint256"
      },
      {
        "astId": 5807,
        "contract": "contracts/Bandit.sol:Bandit",
        "label": "LastRollForPlayer",
        "offset": 0,
        "slot": "4",
        "type": "t_mapping(t_address,t_uint256)"
      },
      {
        "astId": 5813,
        "contract": "contracts/Bandit.sol:Bandit",
        "label": "LastRollForNFT",
        "offset": 0,
        "slot": "5",
        "type": "t_mapping(t_address,t_mapping(t_uint256,t_uint256))"
      }
    ],
    "types": {
      "t_address": {
        "encoding": "inplace",
        "label": "address",
        "numberOfBytes": "20"
      },
      "t_contract(IERC20)1276": {
        "encoding": "inplace",
        "label": "contract IERC20",
        "numberOfBytes": "20"
      },
      "t_mapping(t_address,t_mapping(t_uint256,t_uint256))": {
        "encoding": "mapping",
        "key": "t_address",
        "label": "mapping(address => mapping(uint256 => uint256))",
        "numberOfBytes": "32",
        "value": "t_mapping(t_uint256,t_uint256)"
      },
      "t_mapping(t_address,t_uint256)": {
        "encoding": "mapping",
        "key": "t_address",
        "label": "mapping(address => uint256)",
        "numberOfBytes": "32",
        "value": "t_uint256"
      },
      "t_mapping(t_uint256,t_uint256)": {
        "encoding": "mapping",
        "key": "t_uint256",
        "label": "mapping(uint256 => uint256)",
        "numberOfBytes": "32",
        "value": "t_uint256"
      },
      "t_uint256": {
        "encoding": "inplace",
        "label": "uint256",
        "numberOfBytes": "32"
      }
    }
  }
}