{
  "address": "0x2b8e089770Bc76c82CAF7B6fBd73240E3B7455b0",
  "abi": [
    {
      "inputs": [
        {
          "internalType": "string",
          "name": "name_",
          "type": "string"
        },
        {
          "internalType": "string",
          "name": "symbol_",
          "type": "string"
        },
        {
          "internalType": "address",
          "name": "_tbaRegistryAddress",
          "type": "address"
        },
        {
          "internalType": "address",
          "name": "_tbaImplementationAddress",
          "type": "address"
        },
        {
          "internalType": "uint8",
          "name": "_decimals",
          "type": "uint8"
        }
      ],
      "stateMutability": "nonpayable",
      "type": "constructor"
    },
    {
      "inputs": [
        {
          "internalType": "address",
          "name": "sender",
          "type": "address"
        },
        {
          "internalType": "uint256",
          "name": "tokenId",
          "type": "uint256"
        },
        {
          "internalType": "address",
          "name": "owner",
          "type": "address"
        }
      ],
      "name": "ERC721IncorrectOwner",
      "type": "error"
    },
    {
      "inputs": [
        {
          "internalType": "address",
          "name": "operator",
          "type": "address"
        },
        {
          "internalType": "uint256",
          "name": "tokenId",
          "type": "uint256"
        }
      ],
      "name": "ERC721InsufficientApproval",
      "type": "error"
    },
    {
      "inputs": [
        {
          "internalType": "address",
          "name": "approver",
          "type": "address"
        }
      ],
      "name": "ERC721InvalidApprover",
      "type": "error"
    },
    {
      "inputs": [
        {
          "internalType": "address",
          "name": "operator",
          "type": "address"
        }
      ],
      "name": "ERC721InvalidOperator",
      "type": "error"
    },
    {
      "inputs": [
        {
          "internalType": "address",
          "name": "owner",
          "type": "address"
        }
      ],
      "name": "ERC721InvalidOwner",
      "type": "error"
    },
    {
      "inputs": [
        {
          "internalType": "address",
          "name": "receiver",
          "type": "address"
        }
      ],
      "name": "ERC721InvalidReceiver",
      "type": "error"
    },
    {
      "inputs": [
        {
          "internalType": "address",
          "name": "sender",
          "type": "address"
        }
      ],
      "name": "ERC721InvalidSender",
      "type": "error"
    },
    {
      "inputs": [
        {
          "internalType": "uint256",
          "name": "tokenId",
          "type": "uint256"
        }
      ],
      "name": "ERC721NonexistentToken",
      "type": "error"
    },
    {
      "anonymous": false,
      "inputs": [
        {
          "indexed": true,
          "internalType": "address",
          "name": "owner",
          "type": "address"
        },
        {
          "indexed": true,
          "internalType": "address",
          "name": "approved",
          "type": "address"
        },
        {
          "indexed": true,
          "internalType": "uint256",
          "name": "tokenId",
          "type": "uint256"
        }
      ],
      "name": "Approval",
      "type": "event"
    },
    {
      "anonymous": false,
      "inputs": [
        {
          "indexed": true,
          "internalType": "address",
          "name": "owner",
          "type": "address"
        },
        {
          "indexed": true,
          "internalType": "address",
          "name": "operator",
          "type": "address"
        },
        {
          "indexed": false,
          "internalType": "bool",
          "name": "approved",
          "type": "bool"
        }
      ],
      "name": "ApprovalForAll",
      "type": "event"
    },
    {
      "anonymous": false,
      "inputs": [
        {
          "indexed": true,
          "internalType": "address",
          "name": "minter",
          "type": "address"
        },
        {
          "indexed": false,
          "internalType": "uint256",
          "name": "newTokenId",
          "type": "uint256"
        },
        {
          "indexed": false,
          "internalType": "address",
          "name": "tbaAddress",
          "type": "address"
        },
        {
          "indexed": false,
          "internalType": "address",
          "name": "tberc20Address",
          "type": "address"
        }
      ],
      "name": "TBAMinted",
      "type": "event"
    },
    {
      "anonymous": false,
      "inputs": [
        {
          "indexed": true,
          "internalType": "address",
          "name": "from",
          "type": "address"
        },
        {
          "indexed": true,
          "internalType": "address",
          "name": "to",
          "type": "address"
        },
        {
          "indexed": true,
          "internalType": "uint256",
          "name": "tokenId",
          "type": "uint256"
        }
      ],
      "name": "Transfer",
      "type": "event"
    },
    {
      "inputs": [
        {
          "internalType": "address",
          "name": "to",
          "type": "address"
        },
        {
          "internalType": "uint256",
          "name": "tokenId",
          "type": "uint256"
        }
      ],
      "name": "approve",
      "outputs": [],
      "stateMutability": "nonpayable",
      "type": "function"
    },
    {
      "inputs": [
        {
          "internalType": "address",
          "name": "owner",
          "type": "address"
        }
      ],
      "name": "balanceOf",
      "outputs": [
        {
          "internalType": "uint256",
          "name": "",
          "type": "uint256"
        }
      ],
      "stateMutability": "view",
      "type": "function"
    },
    {
      "inputs": [],
      "name": "decimals",
      "outputs": [
        {
          "internalType": "uint8",
          "name": "",
          "type": "uint8"
        }
      ],
      "stateMutability": "view",
      "type": "function"
    },
    {
      "inputs": [
        {
          "internalType": "uint256",
          "name": "tokenId",
          "type": "uint256"
        }
      ],
      "name": "getApproved",
      "outputs": [
        {
          "internalType": "address",
          "name": "",
          "type": "address"
        }
      ],
      "stateMutability": "view",
      "type": "function"
    },
    {
      "inputs": [
        {
          "internalType": "address",
          "name": "owner",
          "type": "address"
        },
        {
          "internalType": "address",
          "name": "operator",
          "type": "address"
        }
      ],
      "name": "isApprovedForAll",
      "outputs": [
        {
          "internalType": "bool",
          "name": "",
          "type": "bool"
        }
      ],
      "stateMutability": "view",
      "type": "function"
    },
    {
      "inputs": [
        {
          "internalType": "address",
          "name": "to",
          "type": "address"
        }
      ],
      "name": "mint",
      "outputs": [
        {
          "internalType": "uint256",
          "name": "",
          "type": "uint256"
        },
        {
          "internalType": "address",
          "name": "",
          "type": "address"
        },
        {
          "internalType": "address",
          "name": "",
          "type": "address"
        }
      ],
      "stateMutability": "nonpayable",
      "type": "function"
    },
    {
      "inputs": [
        {
          "internalType": "uint256",
          "name": "tokenId",
          "type": "uint256"
        },
        {
          "internalType": "address",
          "name": "to",
          "type": "address"
        },
        {
          "internalType": "uint256",
          "name": "amount",
          "type": "uint256"
        }
      ],
      "name": "mintTokenboundERC20",
      "outputs": [],
      "stateMutability": "nonpayable",
      "type": "function"
    },
    {
      "inputs": [],
      "name": "name",
      "outputs": [
        {
          "internalType": "string",
          "name": "",
          "type": "string"
        }
      ],
      "stateMutability": "view",
      "type": "function"
    },
    {
      "inputs": [
        {
          "internalType": "uint256",
          "name": "tokenId",
          "type": "uint256"
        }
      ],
      "name": "ownerOf",
      "outputs": [
        {
          "internalType": "address",
          "name": "",
          "type": "address"
        }
      ],
      "stateMutability": "view",
      "type": "function"
    },
    {
      "inputs": [
        {
          "internalType": "address",
          "name": "from",
          "type": "address"
        },
        {
          "internalType": "address",
          "name": "to",
          "type": "address"
        },
        {
          "internalType": "uint256",
          "name": "tokenId",
          "type": "uint256"
        }
      ],
      "name": "safeTransferFrom",
      "outputs": [],
      "stateMutability": "nonpayable",
      "type": "function"
    },
    {
      "inputs": [
        {
          "internalType": "address",
          "name": "from",
          "type": "address"
        },
        {
          "internalType": "address",
          "name": "to",
          "type": "address"
        },
        {
          "internalType": "uint256",
          "name": "tokenId",
          "type": "uint256"
        },
        {
          "internalType": "bytes",
          "name": "data",
          "type": "bytes"
        }
      ],
      "name": "safeTransferFrom",
      "outputs": [],
      "stateMutability": "nonpayable",
      "type": "function"
    },
    {
      "inputs": [
        {
          "internalType": "address",
          "name": "operator",
          "type": "address"
        },
        {
          "internalType": "bool",
          "name": "approved",
          "type": "bool"
        }
      ],
      "name": "setApprovalForAll",
      "outputs": [],
      "stateMutability": "nonpayable",
      "type": "function"
    },
    {
      "inputs": [],
      "name": "supply",
      "outputs": [
        {
          "internalType": "uint256",
          "name": "",
          "type": "uint256"
        }
      ],
      "stateMutability": "view",
      "type": "function"
    },
    {
      "inputs": [
        {
          "internalType": "bytes4",
          "name": "interfaceId",
          "type": "bytes4"
        }
      ],
      "name": "supportsInterface",
      "outputs": [
        {
          "internalType": "bool",
          "name": "",
          "type": "bool"
        }
      ],
      "stateMutability": "view",
      "type": "function"
    },
    {
      "inputs": [],
      "name": "symbol",
      "outputs": [
        {
          "internalType": "string",
          "name": "",
          "type": "string"
        }
      ],
      "stateMutability": "view",
      "type": "function"
    },
    {
      "inputs": [
        {
          "internalType": "uint256",
          "name": "",
          "type": "uint256"
        }
      ],
      "name": "tba",
      "outputs": [
        {
          "internalType": "address",
          "name": "",
          "type": "address"
        }
      ],
      "stateMutability": "view",
      "type": "function"
    },
    {
      "inputs": [],
      "name": "tbaImplementationAddress",
      "outputs": [
        {
          "internalType": "address",
          "name": "",
          "type": "address"
        }
      ],
      "stateMutability": "view",
      "type": "function"
    },
    {
      "inputs": [],
      "name": "tbaRegistryAddress",
      "outputs": [
        {
          "internalType": "address",
          "name": "",
          "type": "address"
        }
      ],
      "stateMutability": "view",
      "type": "function"
    },
    {
      "inputs": [
        {
          "internalType": "uint256",
          "name": "",
          "type": "uint256"
        }
      ],
      "name": "tberc20",
      "outputs": [
        {
          "internalType": "address",
          "name": "",
          "type": "address"
        }
      ],
      "stateMutability": "view",
      "type": "function"
    },
    {
      "inputs": [
        {
          "internalType": "uint256",
          "name": "tokenId",
          "type": "uint256"
        }
      ],
      "name": "tokenURI",
      "outputs": [
        {
          "internalType": "string",
          "name": "",
          "type": "string"
        }
      ],
      "stateMutability": "view",
      "type": "function"
    },
    {
      "inputs": [
        {
          "internalType": "address",
          "name": "from",
          "type": "address"
        },
        {
          "internalType": "address",
          "name": "to",
          "type": "address"
        },
        {
          "internalType": "uint256",
          "name": "tokenId",
          "type": "uint256"
        }
      ],
      "name": "transferFrom",
      "outputs": [],
      "stateMutability": "nonpayable",
      "type": "function"
    }
  ],
  "transactionHash": "0xaed239e46aa9dca5d1e8ecf0c14dc359cb5f972aa8afc0c5f9c11001c36ca492",
  "args": [
    "Settlement",
    "ðŸ ",
    "0x2a707eEbc9f5a3cE5fF6A2d4f79Ef985b86498fC",
    "0x6E3F266d2c7406DDE6C8a11a5f00Ca7AFb53bCD3",
    0
  ],
  "numDeployments": 1,
  "solcInputHash": "2578ae5cbb0cde884a51325f1445eb63",
  "bytecode": "0x60806040526000600b553480156200001657600080fd5b506040516200276b3803806200276b8339810160408190526200003991620001a2565b8484848484848460006200004e8382620002dc565b5060016200005d8282620002dc565b5050600680546001600160a01b039586166001600160a01b0319918216811790925560078054959096169416939093179093556008805460ff909216600160a01b026001600160a81b031990921690921717905550620003a89650505050505050565b634e487b7160e01b600052604160045260246000fd5b600082601f830112620000e857600080fd5b81516001600160401b0380821115620001055762000105620000c0565b604051601f8301601f19908116603f01168101908282118183101715620001305762000130620000c0565b816040528381526020925086838588010111156200014d57600080fd5b600091505b8382101562000171578582018301518183018401529082019062000152565b600093810190920192909252949350505050565b80516001600160a01b03811681146200019d57600080fd5b919050565b600080600080600060a08688031215620001bb57600080fd5b85516001600160401b0380821115620001d357600080fd5b620001e189838a01620000d6565b96506020880151915080821115620001f857600080fd5b506200020788828901620000d6565b945050620002186040870162000185565b9250620002286060870162000185565b9150608086015160ff811681146200023f57600080fd5b809150509295509295909350565b600181811c908216806200026257607f821691505b6020821081036200028357634e487b7160e01b600052602260045260246000fd5b50919050565b601f821115620002d757600081815260208120601f850160051c81016020861015620002b25750805b601f850160051c820191505b81811015620002d357828155600101620002be565b5050505b505050565b81516001600160401b03811115620002f857620002f8620000c0565b62000310816200030984546200024d565b8462000289565b602080601f8311600181146200034857600084156200032f5750858301515b600019600386901b1c1916600185901b178555620002d3565b600085815260208120601f198616915b82811015620003795788860151825594840194600190910190840162000358565b5085821015620003985787850151600019600388901b60f8161c191681555b5050505050600190811b01905550565b6123b380620003b86000396000f3fe60806040523480156200001157600080fd5b5060043610620001515760003560e01c80636352211e11620000c7578063ae1586d11162000086578063ae1586d11462000322578063aee14d1b1462000336578063b88d4fde1462000362578063b9eebff91462000379578063c87b56dd146200038d578063e985e9c514620003a457600080fd5b80636352211e14620002965780636a62784214620002ad57806370a0823114620002ea57806395d89b411462000301578063a22cb465146200030b57600080fd5b80631eaa662111620001145780631eaa662114620001fd57806323b872dd14620002145780632e70c8d9146200022b578063313ce567146200025757806342842e0e146200027f57600080fd5b806301ffc9a71462000156578063047fc9aa146200018257806306fdde03146200019b578063081812fc14620001b4578063095ea7b314620001e4575b600080fd5b6200016d6200016736600462001265565b620003bb565b60405190151581526020015b60405180910390f35b6200018c600b5481565b60405190815260200162000179565b620001a56200040f565b604051620001799190620012d9565b620001cb620001c5366004620012ee565b620004a9565b6040516001600160a01b03909116815260200162000179565b620001fb620001f53660046200131e565b620004d5565b005b620001fb6200020e3660046200134d565b620004e6565b620001fb6200022536600462001388565b62000693565b620001cb6200023c366004620012ee565b600a602052600090815260409020546001600160a01b031681565b6008546200026c90600160a01b900460ff1681565b60405160ff909116815260200162000179565b620001fb6200029036600462001388565b6200071e565b620001cb620002a7366004620012ee565b62000740565b620002c4620002be366004620013bd565b6200074d565b604080519384526001600160a01b03928316602085015291169082015260600162000179565b6200018c620002fb366004620013bd565b620007ef565b620001a562000839565b620001fb6200031c366004620013dd565b6200084a565b600754620001cb906001600160a01b031681565b620001cb62000347366004620012ee565b6009602052600090815260409020546001600160a01b031681565b620001fb6200037336600462001494565b62000857565b600654620001cb906001600160a01b031681565b620001a56200039e366004620012ee565b62000872565b6200016d620003b53660046200154f565b620008f0565b60006001600160e01b031982166380ac58cd60e01b1480620003ed57506001600160e01b03198216635b5e139f60e01b145b806200040957506301ffc9a760e01b6001600160e01b03198316145b92915050565b606060008054620004209062001582565b80601f01602080910402602001604051908101604052809291908181526020018280546200044e9062001582565b80156200049f5780601f1062000473576101008083540402835291602001916200049f565b820191906000526020600020905b8154815290600101906020018083116200048157829003601f168201915b5050505050905090565b6000620004b6826200091e565b506000828152600460205260409020546001600160a01b031662000409565b620004e282823362000959565b5050565b620004f18362000740565b6001600160a01b0316336001600160a01b0316146200058f5760405162461bcd60e51b815260206004820152604960248201527f42696e64696e674552433732313a206f6e6c7920746865206f776e6572206f6660448201527f20746865204e46542063616e206d696e7420746f6b656e626f756e6420455243606482015268323020746f6b656e7360b81b608482015260a4015b60405180910390fd5b6000838152600960205260409020546001600160a01b0316620005b433308662000968565b6000848152600a602090815260408083205481516001600160a01b0388811660248301526044808301899052845180840390910181526064909201845293810180516001600160e01b03166340c10f1960e01b1790529151635194544760e01b815285841694635194544794620006359493169290918290600401620015be565b6000604051808303816000875af115801562000655573d6000803e3d6000fd5b505050506040513d6000823e601f3d908101601f191682016040526200067f9190810190620015fb565b506200068d30338662000968565b50505050565b6001600160a01b038216620006bf57604051633250574960e11b81526000600482015260240162000586565b6000620006ce83833362000a20565b9050836001600160a01b0316816001600160a01b0316146200068d576040516364283d7b60e01b81526001600160a01b038086166004830152602482018490528216604482015260640162000586565b6200073b8383836040518060200160405280600081525062000857565b505050565b600062000409826200091e565b600080600080600b5460016200076491906200167b565b90506000806200078a8784836200077a62000839565b6200078462000839565b62000b20565b600b859055604080518681526001600160a01b0384811660208301528381168284015291519395509193508916917fffa9ca8a4cc17f6fd5d0c3924260edaa80cf77b3af325f4ae0bfb01262e57c4d9181900360600190a29196909550909350915050565b60006001600160a01b0382166200081d576040516322718ad960e21b81526000600482015260240162000586565b506001600160a01b031660009081526003602052604090205490565b606060018054620004209062001582565b620004e233838362000c9c565b6200086484848462000693565b6200068d8484848462000d3d565b60606200087f826200091e565b5060006200089860408051602081019091526000815290565b90506000815111620008ba5760405180602001604052806000815250620008e9565b80620008c68462000e73565b604051602001620008d99291906200169d565b6040516020818303038152906040525b9392505050565b6001600160a01b03918216600090815260056020908152604080832093909416825291909152205460ff1690565b6000818152600260205260408120546001600160a01b0316806200040957604051637e27328960e01b81526004810184905260240162000586565b6200073b838383600162000f0d565b6001600160a01b0382166200099457604051633250574960e11b81526000600482015260240162000586565b6000620009a48383600062000a20565b90506001600160a01b038116620009d257604051637e27328960e01b81526004810183905260240162000586565b836001600160a01b0316816001600160a01b0316146200068d576040516364283d7b60e01b81526001600160a01b038086166004830152602482018490528216604482015260640162000586565b6000828152600260205260408120546001600160a01b039081169083161562000a505762000a508184866200101e565b6001600160a01b0381161562000a915762000a7060008560008062000f0d565b6001600160a01b038116600090815260036020526040902080546000190190555b6001600160a01b0385161562000ac1576001600160a01b0385166000908152600360205260409020805460010190555b60008481526002602052604080822080546001600160a01b0319166001600160a01b0389811691821790925591518793918516917fddf252ad1be2c89b69c2b068fc378daa952ba7f163c4a11628f55a4df523b3ef91a4949350505050565b600854600754604051638a54c52f60e01b81526001600160a01b039182166004820152602481018690524660448201523060648201526084810187905260009283921690638a54c52f9060a4016020604051808303816000875af115801562000b8d573d6000803e3d6000fd5b505050506040513d601f19601f8201168201806040525081019062000bb39190620016d0565b60008781526009602052604080822080546001600160a01b0319166001600160a01b0394909416938417905560085490519192889288928892600160a01b90910460ff169162000c03906200123d565b62000c129493929190620016f0565b8190604051809103906000f590508015801562000c33573d6000803e3d6000fd5b506000888152600a6020526040902080546001600160a01b0319166001600160a01b038316179055905062000c69888862001088565b5050506000938452505060096020908152604080842054600a909252909220546001600160a01b03928316949216925050565b6001600160a01b03821662000cd057604051630b61174360e31b81526001600160a01b038316600482015260240162000586565b6001600160a01b03838116600081815260056020908152604080832094871680845294825291829020805460ff191686151590811790915591519182527f17307eab39ab6107e8899845ad3d59bd9653f200f220920489ca2b5937696c31910160405180910390a3505050565b6001600160a01b0383163b156200068d57604051630a85bd0160e11b81526001600160a01b0384169063150b7a029062000d829033908890879087906004016200173e565b6020604051808303816000875af192505050801562000dc0575060408051601f3d908101601f1916820190925262000dbd918101906200177d565b60015b62000e2e573d80801562000df1576040519150601f19603f3d011682016040523d82523d6000602084013e62000df6565b606091505b50805160000362000e2657604051633250574960e11b81526001600160a01b038516600482015260240162000586565b805181602001fd5b6001600160e01b03198116630a85bd0160e11b1462000e6c57604051633250574960e11b81526001600160a01b038516600482015260240162000586565b5050505050565b6060600062000e8283620010f3565b600101905060008167ffffffffffffffff81111562000ea55762000ea56200141f565b6040519080825280601f01601f19166020018201604052801562000ed0576020820181803683370190505b5090508181016020015b600019016f181899199a1a9b1b9c1cb0b131b232b360811b600a86061a8153600a850494508462000eda57509392505050565b808062000f2257506001600160a01b03821615155b1562000fee57600062000f35846200091e565b90506001600160a01b0383161580159062000f625750826001600160a01b0316816001600160a01b031614155b801562000f78575062000f768184620008f0565b155b1562000fa35760405163a9fbf51f60e01b81526001600160a01b038416600482015260240162000586565b811562000fec5783856001600160a01b0316826001600160a01b03167f8c5be1e5ebec7d5bd14f71427d1e84f3dd0314c0f7b2291e5b200ac8c7c3b92560405160405180910390a45b505b5050600090815260046020526040902080546001600160a01b0319166001600160a01b0392909216919091179055565b6200102b838383620011d2565b6200073b576001600160a01b0383166200105c57604051637e27328960e01b81526004810182905260240162000586565b60405163177e802f60e01b81526001600160a01b03831660048201526024810182905260440162000586565b6001600160a01b038216620010b457604051633250574960e11b81526000600482015260240162000586565b6000620010c48383600062000a20565b90506001600160a01b038116156200073b576040516339e3563760e11b81526000600482015260240162000586565b60008072184f03e93ff9f4daa797ed6e38ed64bf6a1f0160401b8310620011335772184f03e93ff9f4daa797ed6e38ed64bf6a1f0160401b830492506040015b6d04ee2d6d415b85acef8100000000831062001160576d04ee2d6d415b85acef8100000000830492506020015b662386f26fc1000083106200117f57662386f26fc10000830492506010015b6305f5e100831062001198576305f5e100830492506008015b6127108310620011ad57612710830492506004015b60648310620011c0576064830492506002015b600a8310620004095760010192915050565b60006001600160a01b03831615801590620012355750826001600160a01b0316846001600160a01b03161480620012105750620012108484620008f0565b806200123557506000828152600460205260409020546001600160a01b038481169116145b949350505050565b610be0806200179e83390190565b6001600160e01b0319811681146200126257600080fd5b50565b6000602082840312156200127857600080fd5b8135620008e9816200124b565b60005b83811015620012a257818101518382015260200162001288565b50506000910152565b60008151808452620012c581602086016020860162001285565b601f01601f19169290920160200192915050565b602081526000620008e96020830184620012ab565b6000602082840312156200130157600080fd5b5035919050565b6001600160a01b03811681146200126257600080fd5b600080604083850312156200133257600080fd5b82356200133f8162001308565b946020939093013593505050565b6000806000606084860312156200136357600080fd5b833592506020840135620013778162001308565b929592945050506040919091013590565b6000806000606084860312156200139e57600080fd5b8335620013ab8162001308565b92506020840135620013778162001308565b600060208284031215620013d057600080fd5b8135620008e98162001308565b60008060408385031215620013f157600080fd5b8235620013fe8162001308565b9150602083013580151581146200141457600080fd5b809150509250929050565b634e487b7160e01b600052604160045260246000fd5b604051601f8201601f1916810167ffffffffffffffff811182821017156200146157620014616200141f565b604052919050565b600067ffffffffffffffff8211156200148657620014866200141f565b50601f01601f191660200190565b60008060008060808587031215620014ab57600080fd5b8435620014b88162001308565b93506020850135620014ca8162001308565b925060408501359150606085013567ffffffffffffffff811115620014ee57600080fd5b8501601f810187136200150057600080fd5b803562001517620015118262001469565b62001435565b8181528860208385010111156200152d57600080fd5b8160208401602083013760006020838301015280935050505092959194509250565b600080604083850312156200156357600080fd5b8235620015708162001308565b91506020830135620014148162001308565b600181811c908216806200159757607f821691505b602082108103620015b857634e487b7160e01b600052602260045260246000fd5b50919050565b60018060a01b0385168152836020820152608060408201526000620015e76080830185620012ab565b905060ff8316606083015295945050505050565b6000602082840312156200160e57600080fd5b815167ffffffffffffffff8111156200162657600080fd5b8201601f810184136200163857600080fd5b805162001649620015118262001469565b8181528560208385010111156200165f57600080fd5b6200167282602083016020860162001285565b95945050505050565b808201808211156200040957634e487b7160e01b600052601160045260246000fd5b60008351620016b181846020880162001285565b835190830190620016c781836020880162001285565b01949350505050565b600060208284031215620016e357600080fd5b8151620008e98162001308565b608081526000620017056080830187620012ab565b8281036020840152620017198187620012ab565b60ff95909516604084015250506001600160a01b039190911660609091015292915050565b6001600160a01b03858116825284166020820152604081018390526080606082018190526000906200177390830184620012ab565b9695505050505050565b6000602082840312156200179057600080fd5b8151620008e9816200124b56fe60806040523480156200001157600080fd5b5060405162000be038038062000be0833981016040819052620000349162000161565b8383600362000044838262000294565b50600462000053828262000294565b5050600580546001600160a01b039093166001600160a01b031960ff909516600160a01b02949094166001600160a81b0319909316929092179290921790555062000360915050565b634e487b7160e01b600052604160045260246000fd5b600082601f830112620000c457600080fd5b81516001600160401b0380821115620000e157620000e16200009c565b604051601f8301601f19908116603f011681019082821181831017156200010c576200010c6200009c565b816040528381526020925086838588010111156200012957600080fd5b600091505b838210156200014d57858201830151818301840152908201906200012e565b600093810190920192909252949350505050565b600080600080608085870312156200017857600080fd5b84516001600160401b03808211156200019057600080fd5b6200019e88838901620000b2565b95506020870151915080821115620001b557600080fd5b50620001c487828801620000b2565b935050604085015160ff81168114620001dc57600080fd5b60608601519092506001600160a01b0381168114620001fa57600080fd5b939692955090935050565b600181811c908216806200021a57607f821691505b6020821081036200023b57634e487b7160e01b600052602260045260246000fd5b50919050565b601f8211156200028f57600081815260208120601f850160051c810160208610156200026a5750805b601f850160051c820191505b818110156200028b5782815560010162000276565b5050505b505050565b81516001600160401b03811115620002b057620002b06200009c565b620002c881620002c1845462000205565b8462000241565b602080601f831160018114620003005760008415620002e75750858301515b600019600386901b1c1916600185901b1785556200028b565b600085815260208120601f198616915b82811015620003315788860151825594840194600190910190840162000310565b5085821015620003505787850151600019600388901b60f8161c191681555b5050505050600190811b01905550565b61087080620003706000396000f3fe608060405234801561001057600080fd5b50600436106100b45760003560e01c806340c10f191161007157806340c10f191461016957806342966c681461017e57806370a082311461019157806395d89b41146101ba578063a9059cbb146101c2578063dd62ed3e146101d557600080fd5b806306fdde03146100b957806307546172146100d7578063095ea7b31461010257806318160ddd1461012557806323b872dd14610137578063313ce5671461014a575b600080fd5b6100c161020e565b6040516100ce91906106a1565b60405180910390f35b6005546100ea906001600160a01b031681565b6040516001600160a01b0390911681526020016100ce565b61011561011036600461070b565b6102a0565b60405190151581526020016100ce565b6002545b6040519081526020016100ce565b610115610145366004610735565b6102ba565b600554600160a01b900460ff1660405160ff90911681526020016100ce565b61017c61017736600461070b565b6102de565b005b61017c61018c366004610771565b61031d565b61012961019f36600461078a565b6001600160a01b031660009081526020819052604090205490565b6100c161032a565b6101156101d036600461070b565b610339565b6101296101e33660046107ac565b6001600160a01b03918216600090815260016020908152604080832093909416825291909152205490565b60606003805461021d906107df565b80601f0160208091040260200160405190810160405280929190818152602001828054610249906107df565b80156102965780601f1061026b57610100808354040283529160200191610296565b820191906000526020600020905b81548152906001019060200180831161027957829003601f168201915b5050505050905090565b6000336102ae818585610347565b60019150505b92915050565b6000336102c8858285610359565b6102d38585856103d7565b506001949350505050565b6005546001600160a01b0316331461030f5760405162f78d2360e81b81523360048201526024015b60405180910390fd5b6103198282610436565b5050565b610327338261046c565b50565b60606004805461021d906107df565b6000336102ae8185856103d7565b61035483838360016104a2565b505050565b6001600160a01b0383811660009081526001602090815260408083209386168352929052205460001981146103d157818110156103c257604051637dc7a0d960e11b81526001600160a01b03841660048201526024810182905260448101839052606401610306565b6103d1848484840360006104a2565b50505050565b6001600160a01b03831661040157604051634b637e8f60e11b815260006004820152602401610306565b6001600160a01b03821661042b5760405163ec442f0560e01b815260006004820152602401610306565b610354838383610577565b6001600160a01b0382166104605760405163ec442f0560e01b815260006004820152602401610306565b61031960008383610577565b6001600160a01b03821661049657604051634b637e8f60e11b815260006004820152602401610306565b61031982600083610577565b6001600160a01b0384166104cc5760405163e602df0560e01b815260006004820152602401610306565b6001600160a01b0383166104f657604051634a1406b160e11b815260006004820152602401610306565b6001600160a01b03808516600090815260016020908152604080832093871683529290522082905580156103d157826001600160a01b0316846001600160a01b03167f8c5be1e5ebec7d5bd14f71427d1e84f3dd0314c0f7b2291e5b200ac8c7c3b9258460405161056991815260200190565b60405180910390a350505050565b6001600160a01b0383166105a25780600260008282546105979190610819565b909155506106149050565b6001600160a01b038316600090815260208190526040902054818110156105f55760405163391434e360e21b81526001600160a01b03851660048201526024810182905260448101839052606401610306565b6001600160a01b03841660009081526020819052604090209082900390555b6001600160a01b0382166106305760028054829003905561064f565b6001600160a01b03821660009081526020819052604090208054820190555b816001600160a01b0316836001600160a01b03167fddf252ad1be2c89b69c2b068fc378daa952ba7f163c4a11628f55a4df523b3ef8360405161069491815260200190565b60405180910390a3505050565b600060208083528351808285015260005b818110156106ce578581018301518582016040015282016106b2565b506000604082860101526040601f19601f8301168501019250505092915050565b80356001600160a01b038116811461070657600080fd5b919050565b6000806040838503121561071e57600080fd5b610727836106ef565b946020939093013593505050565b60008060006060848603121561074a57600080fd5b610753846106ef565b9250610761602085016106ef565b9150604084013590509250925092565b60006020828403121561078357600080fd5b5035919050565b60006020828403121561079c57600080fd5b6107a5826106ef565b9392505050565b600080604083850312156107bf57600080fd5b6107c8836106ef565b91506107d6602084016106ef565b90509250929050565b600181811c908216806107f357607f821691505b60208210810361081357634e487b7160e01b600052602260045260246000fd5b50919050565b808201808211156102b457634e487b7160e01b600052601160045260246000fdfea26469706673582212206c9dac924f50e6c993245b87eb6e49c154b403a8168b6edd52cdc51485a0b1a664736f6c63430008140033a2646970667358221220953465835bf79d8d4554476feadcb8984b7adac0efce1ba5e8b82cf5be1b503864736f6c63430008140033",
  "devdoc": {
    "author": "Moonstream Engineering (engineering@moonstream.to)",
    "details": "This implementation adds a public and permissionless mint method to BindingERC721. It doesn't specify additional behavior, like tokenURI, etc. Subclass this if you want free mints.",
    "errors": {
      "ERC721IncorrectOwner(address,uint256,address)": [
        {
          "details": "Indicates an error related to the ownership over a particular token. Used in transfers.",
          "params": {
            "owner": "Address of the current owner of a token.",
            "sender": "Address whose tokens are being transferred.",
            "tokenId": "Identifier number of a token."
          }
        }
      ],
      "ERC721InsufficientApproval(address,uint256)": [
        {
          "details": "Indicates a failure with the `operator`â€™s approval. Used in transfers.",
          "params": {
            "operator": "Address that may be allowed to operate on tokens without being their owner.",
            "tokenId": "Identifier number of a token."
          }
        }
      ],
      "ERC721InvalidApprover(address)": [
        {
          "details": "Indicates a failure with the `approver` of a token to be approved. Used in approvals.",
          "params": {
            "approver": "Address initiating an approval operation."
          }
        }
      ],
      "ERC721InvalidOperator(address)": [
        {
          "details": "Indicates a failure with the `operator` to be approved. Used in approvals.",
          "params": {
            "operator": "Address that may be allowed to operate on tokens without being their owner."
          }
        }
      ],
      "ERC721InvalidOwner(address)": [
        {
          "details": "Indicates that an address can't be an owner. For example, `address(0)` is a forbidden owner in EIP-20. Used in balance queries.",
          "params": {
            "owner": "Address of the current owner of a token."
          }
        }
      ],
      "ERC721InvalidReceiver(address)": [
        {
          "details": "Indicates a failure with the token `receiver`. Used in transfers.",
          "params": {
            "receiver": "Address to which tokens are being transferred."
          }
        }
      ],
      "ERC721InvalidSender(address)": [
        {
          "details": "Indicates a failure with the token `sender`. Used in transfers.",
          "params": {
            "sender": "Address whose tokens are being transferred."
          }
        }
      ],
      "ERC721NonexistentToken(uint256)": [
        {
          "details": "Indicates a `tokenId` whose `owner` is the zero address.",
          "params": {
            "tokenId": "Identifier number of a token."
          }
        }
      ]
    },
    "events": {
      "Approval(address,address,uint256)": {
        "details": "Emitted when `owner` enables `approved` to manage the `tokenId` token."
      },
      "ApprovalForAll(address,address,bool)": {
        "details": "Emitted when `owner` enables or disables (`approved`) `operator` to manage all of its assets."
      },
      "Transfer(address,address,uint256)": {
        "details": "Emitted when `tokenId` token is transferred from `from` to `to`."
      }
    },
    "kind": "dev",
    "methods": {
      "approve(address,uint256)": {
        "details": "See {IERC721-approve}."
      },
      "balanceOf(address)": {
        "details": "See {IERC721-balanceOf}."
      },
      "constructor": {
        "params": {
          "_decimals": "The number of decimal digits that make up the fractional part of token amounts in all TokenboundERC20 contracts created by this contract.",
          "_tbaImplementationAddress": "The address of the ERC6551 account implementation for the tokenbound accounts created by this contract.",
          "_tbaRegistryAddress": "The address of the ERC6551 registry that this contract uses to create tokenbound accounts.",
          "name_": "The name of the token collection represented by this ERC721 contract.",
          "symbol_": "A short identifier for the token collection represented by this ERC721 contract."
        }
      },
      "getApproved(uint256)": {
        "details": "See {IERC721-getApproved}."
      },
      "isApprovedForAll(address,address)": {
        "details": "See {IERC721-isApprovedForAll}."
      },
      "mint(address)": {
        "details": "This is not a \"safe\" mint - it does not check if a smart contract recipient implements onERC721Received.",
        "returns": {
          "_0": "The token ID of the newly minted token.",
          "_1": "The address of the tokenbound account which has tokenbound ERC20 minting control.",
          "_2": "The address of the TokenboundERC20 contract."
        }
      },
      "mintTokenboundERC20(uint256,address,uint256)": {
        "details": "This function atomically transfers the binding NFT to this contract, performs the tokenbound ERC20 mint, and then transfers the binding NFT back to its original owner."
      },
      "name()": {
        "details": "See {IERC721Metadata-name}."
      },
      "ownerOf(uint256)": {
        "details": "See {IERC721-ownerOf}."
      },
      "safeTransferFrom(address,address,uint256)": {
        "details": "See {IERC721-safeTransferFrom}."
      },
      "safeTransferFrom(address,address,uint256,bytes)": {
        "details": "See {IERC721-safeTransferFrom}."
      },
      "setApprovalForAll(address,bool)": {
        "details": "See {IERC721-setApprovalForAll}."
      },
      "supportsInterface(bytes4)": {
        "details": "See {IERC165-supportsInterface}."
      },
      "symbol()": {
        "details": "See {IERC721Metadata-symbol}."
      },
      "tokenURI(uint256)": {
        "details": "See {IERC721Metadata-tokenURI}."
      },
      "transferFrom(address,address,uint256)": {
        "details": "See {IERC721-transferFrom}."
      }
    },
    "title": "A permissionless implementation of an ERC721 contract designed to bind Tokenbound ERC20s",
    "version": 1
  },
  "userdoc": {
    "kind": "user",
    "methods": {
      "decimals()": {
        "notice": "The number of decimals that each TokenboundERC20 contract deployed by this contract will have."
      },
      "mint(address)": {
        "notice": "This function allows any caller to mint a token on this contract to any address."
      },
      "mintTokenboundERC20(uint256,address,uint256)": {
        "notice": "This function allows the current owner of a token on this contract to mint on its tokenbound ERC20 contract without having to interact directly with the tokenbound account."
      },
      "supply()": {
        "notice": "The number of ERC721 tokens minted by this contract."
      },
      "tba(uint256)": {
        "notice": "A mapping which relates each token ID to the tokenbound account with minting authority on its TokenboundERC20 contract."
      },
      "tbaImplementationAddress()": {
        "notice": "The address of the ERC6551 account implementation used to create tokenbound accounts."
      },
      "tbaRegistryAddress()": {
        "notice": "The address of the ERC6551 registry used to create tokenbound accounts."
      },
      "tberc20(uint256)": {
        "notice": "A mapping which relates each token ID to its TokenboundERC20 contract."
      }
    },
    "notice": "This contract is a BindingERC721 contract which allows anyone to mint ERC721 tokens with corresponding tokenbound ERC20 contracts.",
    "version": 1
  },
  "storageLayout": {
    "storage": [
      {
        "astId": 788,
        "contract": "contracts/BindingERC721.sol:PermissionlessBindingERC721",
        "label": "_name",
        "offset": 0,
        "slot": "0",
        "type": "t_string_storage"
      },
      {
        "astId": 790,
        "contract": "contracts/BindingERC721.sol:PermissionlessBindingERC721",
        "label": "_symbol",
        "offset": 0,
        "slot": "1",
        "type": "t_string_storage"
      },
      {
        "astId": 794,
        "contract": "contracts/BindingERC721.sol:PermissionlessBindingERC721",
        "label": "_owners",
        "offset": 0,
        "slot": "2",
        "type": "t_mapping(t_uint256,t_address)"
      },
      {
        "astId": 798,
        "contract": "contracts/BindingERC721.sol:PermissionlessBindingERC721",
        "label": "_balances",
        "offset": 0,
        "slot": "3",
        "type": "t_mapping(t_address,t_uint256)"
      },
      {
        "astId": 802,
        "contract": "contracts/BindingERC721.sol:PermissionlessBindingERC721",
        "label": "_tokenApprovals",
        "offset": 0,
        "slot": "4",
        "type": "t_mapping(t_uint256,t_address)"
      },
      {
        "astId": 808,
        "contract": "contracts/BindingERC721.sol:PermissionlessBindingERC721",
        "label": "_operatorApprovals",
        "offset": 0,
        "slot": "5",
        "type": "t_mapping(t_address,t_mapping(t_address,t_bool))"
      },
      {
        "astId": 3423,
        "contract": "contracts/BindingERC721.sol:PermissionlessBindingERC721",
        "label": "tbaRegistryAddress",
        "offset": 0,
        "slot": "6",
        "type": "t_address"
      },
      {
        "astId": 3426,
        "contract": "contracts/BindingERC721.sol:PermissionlessBindingERC721",
        "label": "tbaImplementationAddress",
        "offset": 0,
        "slot": "7",
        "type": "t_address"
      },
      {
        "astId": 3430,
        "contract": "contracts/BindingERC721.sol:PermissionlessBindingERC721",
        "label": "tbaRegistry",
        "offset": 0,
        "slot": "8",
        "type": "t_contract(IERC6551Registry)3866"
      },
      {
        "astId": 3433,
        "contract": "contracts/BindingERC721.sol:PermissionlessBindingERC721",
        "label": "decimals",
        "offset": 20,
        "slot": "8",
        "type": "t_uint8"
      },
      {
        "astId": 3438,
        "contract": "contracts/BindingERC721.sol:PermissionlessBindingERC721",
        "label": "tba",
        "offset": 0,
        "slot": "9",
        "type": "t_mapping(t_uint256,t_address)"
      },
      {
        "astId": 3443,
        "contract": "contracts/BindingERC721.sol:PermissionlessBindingERC721",
        "label": "tberc20",
        "offset": 0,
        "slot": "10",
        "type": "t_mapping(t_uint256,t_address)"
      },
      {
        "astId": 3643,
        "contract": "contracts/BindingERC721.sol:PermissionlessBindingERC721",
        "label": "supply",
        "offset": 0,
        "slot": "11",
        "type": "t_uint256"
      }
    ],
    "types": {
      "t_address": {
        "encoding": "inplace",
        "label": "address",
        "numberOfBytes": "20"
      },
      "t_bool": {
        "encoding": "inplace",
        "label": "bool",
        "numberOfBytes": "1"
      },
      "t_contract(IERC6551Registry)3866": {
        "encoding": "inplace",
        "label": "contract IERC6551Registry",
        "numberOfBytes": "20"
      },
      "t_mapping(t_address,t_bool)": {
        "encoding": "mapping",
        "key": "t_address",
        "label": "mapping(address => bool)",
        "numberOfBytes": "32",
        "value": "t_bool"
      },
      "t_mapping(t_address,t_mapping(t_address,t_bool))": {
        "encoding": "mapping",
        "key": "t_address",
        "label": "mapping(address => mapping(address => bool))",
        "numberOfBytes": "32",
        "value": "t_mapping(t_address,t_bool)"
      },
      "t_mapping(t_address,t_uint256)": {
        "encoding": "mapping",
        "key": "t_address",
        "label": "mapping(address => uint256)",
        "numberOfBytes": "32",
        "value": "t_uint256"
      },
      "t_mapping(t_uint256,t_address)": {
        "encoding": "mapping",
        "key": "t_uint256",
        "label": "mapping(uint256 => address)",
        "numberOfBytes": "32",
        "value": "t_address"
      },
      "t_string_storage": {
        "encoding": "bytes",
        "label": "string",
        "numberOfBytes": "32"
      },
      "t_uint256": {
        "encoding": "inplace",
        "label": "uint256",
        "numberOfBytes": "32"
      },
      "t_uint8": {
        "encoding": "inplace",
        "label": "uint8",
        "numberOfBytes": "1"
      }
    }
  }
}